:020000040800F2
:10000000086F01206D0200080D540008AB3F000886
:1000100009540008050E00086D6700080000000084
:10002000000000000000000000000000AD0100081A
:10003000111100080000000009020008E55F000837
:100040008702000887020008870200081959000883
:10005000870200088702000887020008870200085C
:10006000870200088702000887020008870200084C
:10007000870200088702000887020008870200083C
:1000800087020008870200088702000800000000BD
:1000900000000000000000000000000087020008CF
:1000A00087020008C960000887020008870200086C
:1000B00087020008870200088702000887020008FC
:1000C00087020008870200088702000887020008EC
:1000D000870200085D670008870200080000000032
:1000E000870200088702000887020008000000005D
:1000F000000000000000000000000000870200086F
:10010000000000008702000887020008870200083C
:1001100000000000000000000000000000000000DF
:1001200087020008870200084D0F000887020008B8
:10013000870200080000000000000000000000002E
:10014000000000000000000000000000870200081E
:100150005D0F0008870200086D0F00088702000885
:10016000870200088702000800000000000000006D
:10017000000000000000000000000000000000007F
:1001800000000000870200080000000000000000DE
:100190008702000887020008DFF80CD000F0BEFBE1
:1001A00000480047D9070308086F01202C4B196845
:1001B0000868B0E8F04F80F30988BFF36F8F4FF005
:1001C000000080F3118870470000000008480068B4
:1001D000006880F308884FF0000080F3148862B64E
:1001E00061B6BFF34F8FBFF36F8F00DF00BF00BF5B
:1001F00008ED00E0DFF80C00016841F470010160D7
:10020000704700BF88ED00E0EFF30980BFF36F8F08
:10021000134B1A681EF0100F08BF20ED108A20E95A
:10022000F04F106009B44FF0500080F31188BFF315
:100230004F8FBFF36F8F38F023FB4FF0000080F338
:10024000118809BC19680868B0E8F04F1EF0100F5B
:1002500008BFB0EC108A80F30988BFF36F8F704736
:1002600000010020EFF3058070470000064880473A
:1002700006480047FEE7FEE7FEE7FEE7FEE7FEE78B
:10028000FEE7FEE7FEE7FEE7B5600008990100081B
:100290002DE9F05F0546002092469B4688460646BB
:1002A000814640241BE0284641464746224600F04E
:1002B00064FA53465A46C01A914110D31146184663
:1002C000224600F04BFA2D1A67EB01084F462246F2
:1002D0000120002100F042FA17EB00094E41201ED8
:1002E000A4F10104DFDC484631462A464346BDE816
:1002F000F09F40EA01039B0703D009E008C9121FE1
:1003000008C0042AFAD203E011F8013B00F8013BCF
:10031000521EF9D27047D2B201E000F8012B491EFB
:10032000FBD270470022F6E710B513460A46044692
:100330001946FFF7F0FF204610BD421C10F8011BC4
:100340000029FBD1801A704710B5002200E0521C32
:10035000835C8C5CA34201D1002BF8D1D8B2E1B20E
:10036000401A10BD30B504460020034600E05B1C77
:10037000934203D2E05CCD5C401BF8D030BD034615
:1003800011F8012B00F8012B002AF9D1184670470B
:100390002DE9FE4F804681EA0300C00F0C46009015
:1003A00021F0004123F00045B8EB0200A94105D23D
:1003B0004046214690461C460B46024623F000402C
:1003C000104347D0270DC7F30A00C3F30A51029028
:1003D000401A019040286BDAC3F3130040F4801BED
:1003E0000098924620B10023D2EB030A63EB0B0B7B
:1003F00001985946C0F14002504600F0AFF9064658
:100400000D4650465946019A00F0C7F910EB080016
:100410006141002487EA115284EAE7731A4340D00D
:10042000009A62B3019A012A4FEA075215DC001BB9
:1004300061EB02014FF0004202EA0752CDE90042AF
:10044000001C41F5801132462B4600F0FEF903B046
:10045000BDE8F08F40462146F9E7001B61EB020141
:10046000001C41F5801300185B412018A2F500170D
:1004700047EB030140EAD570B6196D4111E06D08F4
:100480004FEA360645EAC0754FEA0752001B61EB9A
:100490000201001C41F5801149084FEA30000019A3
:1004A000514132462B4603B0BDE8F04F00F0BEB9D3
:1004B0000098012240000023D0EB020263EBE073BE
:1004C000009821464FEAE074B8EB000061EB0401AC
:1004D000E9E783F000435BE781F0004158E72DE94D
:1004E000FE4F81EA030404F0004421F0004100942F
:1004F0004FF0000B23F0004350EA01045ED052EAB3
:1005000003045BD0C3F30A54C1F30A552C44A4F28C
:10051000F3340194A0FB0254C1F3130141F48011A0
:10052000C3F3130343F4801301FB024400FB034EA7
:10053000840A970A44EA815447EA8357A4FB076870
:1005400002958D0A05FB07854FEA932C04FB0C549A
:100550002705029D4FEA065847EA1637B5EB08050E
:100560006EEB070C870E920E47EA811742EA831260
:10057000A7FB0201B6EB0B0164EB00042B0D43EA71
:100580000C335E1844EB1C50DA465146E7FB02017F
:10059000C5F313044FEA0B3343EA14534FEA043212
:1005A000019C43EA0603A4F10C040294009CCDE9EB
:1005B00000B400F04AF903B0BDE8F08F0020014616
:1005C000F9E72DE9F04D81EA030404F0004B21F036
:1005D000004514464FF0000A23F0004150EA05029E
:1005E00020D054EA01021DD0C5F30A570246C5F3D4
:1005F0001303C1F31300C1F30A5640F4801543F40A
:100600008013A7EB0608101BD64608F2FD3873EBE3
:10061000050002D308F1010801E092185B41B8F12E
:10062000000F03DA00200146BDE8F08D00204FF4F2
:100630008011064684460EE0171B73EB050705D3B1
:10064000121B63EB050306434CEA010C49084FEA11
:10065000300092185B4150EA0107EDD152EA0300E5
:1006600012D082EA040083EA0501084305D0101B7A
:10067000AB4106D20122002306E000224FF00043E6
:1006800002E06FF0010253101AEB06004CEB085128
:1006900010EB0A0041EB0B01BDE8F04D00F0C6B8CD
:1006A00000F0004230F000400AD0C10D01F5607149
:1006B000C0F3160042EA0151C208400711437047D7
:1006C000002001467047000030B5041E71F100049F
:1006D00004DB4FF00044404264EB0101141E73F14F
:1006E000000405DB1C464FF00043524263EB040359
:1006F000994208BF904230BD01F0004330B421F070
:10070000004150EA010206D00A0DA2F56072C1F361
:100710001301002A02DC30BC00207047440F44EA79
:10072000C104C100E01830BC00EBC25000F047B873
:1007300030B50B46014600202022012409E021FAB1
:1007400002F59D4205D303FA02F5491B04FA02F5AE
:100750002844151EA2F10102F1DC30BD202A04DB81
:10076000203A00FA02F1002070479140C2F12003C4
:1007700020FA03F3194390407047202A04DB203A03
:1007800021FA02F00021704721FA02F3D040C2F1B1
:1007900020029140084319467047202A06DBCB17F8
:1007A000203A41FA02F043EAE07306E041FA02F32C
:1007B000D040C2F1200291400843194670470029F9
:1007C000A8BF7047401C490008BF20F001007047D7
:1007D00010B4B0FA80FC00FA0CF050EA010404BF37
:1007E00010BC704749B1CCF1200421FA04F411FA8D
:1007F0000CF118BF012121430843A3EB0C01CB1DD1
:100800004FEA00614FEA102042BF002010BC704741
:1008100000EBC35010440029A4BF10BC7047401C1B
:10082000490008BF20F0010010BC704710B5141E2D
:1008300073F1000408DA401C41F1000192185B4199
:100840001A4301D120F0010010BD2DE9F04D924670
:100850009B4611B1B1FA81F202E0B0FA80F2203287
:100860009046FFF77BFF04460F4640EA0A0041EA44
:100870000B0153465A46084313D0114653EA010070
:1008800019D0C8F140025046FFF777FF05460E46E3
:10089000504659464246FFF761FF084305D0012004
:1008A00004E020463946BDE8F08D0020054346EAC5
:1008B000E0762C4337430A986305E40AA0EB08006E
:1008C0000022FD0A44EA47540A3002D500200146BE
:1008D000E9E7010510196941DDE908450019694199
:1008E000BDE8F04DA2E7C1F30A52C1F3130140F293
:1008F000FF3341F480119A4202DA0020014670472A
:1009000040F233439A42A2F2334202DC5242FFF7F2
:1009100034BFFFF723BF002070470000064C074D8F
:1009200006E0E06840F0010394E8070098471034BF
:10093000AC42F6D3FFF734FCD8290408F8290408A0
:1009400070B58C1810F8015B15F0070301D110F891
:10095000013B2A1106D110F8012B03E010F8016BBE
:1009600001F8016B5B1EF9D12B0705D40023521E41
:100970000DD401F8013BFAE710F8013BCB1A921CA9
:1009800003E013F8015B01F8015B521EF9D5A142A7
:10099000D8D3002070BD000055494A6822F4403287
:1009A0004A604A6843681A434A600268526822F4FF
:1009B000807203685A6002685368026943EA02223F
:1009C00003685A600268526822F0407203685A60F5
:1009D0000268526883681A4303685A600268926822
:1009E00022F4006203689A6002689268C3681A433E
:1009F00003689A603F4B826A9A4218D002689268F4
:100A000022F0706203689A6002689268836A1A43EF
:100A100003689A600268926822F0405203689A6004
:100A200002689268C36A1A4303689A600BE002681E
:100A3000926822F0706203689A600268926822F0FD
:100A4000405203689A600268926822F002020368CA
:100A50009A6002689368027E43EA420203689A60E1
:100A60002022125CA2B10268526842F4006203685C
:100A70005A600268526822F4604203685A60026851
:100A80005368426A521E43EA423203685A6005E0E4
:100A90000268526822F4006203685A600268D26AEF
:100AA00022F470020368DA620268D36A828B521EF3
:100AB00043EA02520368DA620268926822F4007222
:100AC00003689A600268936890F8302043EA4222F3
:100AD00003689A600268926822F4806203689A60F0
:100AE00002689368426943EA822203689A60704709
:100AF000002301400100000F08B500BF0020009056
:100B00000C48006840F002000A4908600846006886
:100B100000F00200009000BF00BF074803F0D8FBC0
:100B200028200BF00DFE00F0C3F800B100BF00203C
:100B300008BD000030380240A80300202DE9FC5F0A
:100B400005460E46052700200190814682468046D4
:100B5000834600900024554803F05BFC7021534805
:100B600003F012FC514803F092FCAC214F4803F013
:100B70000BFC4E4803F08BFC33214C4803F004FC83
:100B80004A4803F084FC0021484803F0FDFB474835
:100B900003F07DFC454803F05BFC50200BF0D0FDDA
:100BA00006E005200BF0CCFD781EC7B200F080F8FF
:100BB00000F07EF800F0010008B1002FF1D117B964
:100BC0000120BDE8FC9F394803F023FC7121374820
:100BD00003F0DAFB354803F05AFC344803F092FB8B
:100BE000324803F0B9FB314803F08CFB81462F48B3
:100BF00003F0B2FB2D4803F085FB82462B4803F03F
:100C0000ABFB2A4803F07EFB8046284803F0A4FB98
:100C1000264803F077FB8346244803F09DFB2348D6
:100C200003F070FB0090214803F0DBFB1F4803F04A
:100C30000FFC44EA0900040244EA0A00040244EA00
:100C4000080424094FF47A706043000D00EE100A86
:100C5000B8EE400A85ED000A95ED000AF2EE040AAE
:100C600080EE201A85ED001A002408F00F002043C2
:100C7000040244EA0B0004020098044300BF4FF44E
:100C8000FA6060434FF4FA71C1EB105000EE100AA5
:100C9000B8EE400A86ED000A96ED000AF2EE040A6C
:100CA00080EE201A86ED001A00208AE7A8030020B3
:100CB00010B50B4803F0ADFB7121094803F064FB4C
:100CC000074803F0E4FB064803F01CFB0446044815
:100CD00003F087FB024803F0BBFB204610BD000079
:100CE000A803002010B52DED028B04F0F5FCDFED1C
:100CF0000D0A80EE201AF0EE418ADFED0B0AB0EE0D
:100D0000680A05F039FEF7EE000A30EEC00ADFEDA2
:100D1000070A20EE200AB0EE408AB0EE480ABDEC89
:100D2000028B10BD80E6C54701DE423E002A2D47FA
:100D300008B500BF002000900848006840F001009E
:100D4000064908600846006800F00100009000BFF6
:100D500000BF034803F0BCFA08BD00003038024071
:100D6000B4030020F8B504460D4616462B4622462D
:100D700050210248009603F0B4FBF8BDB4030020F4
:100D8000F8B504460D4616462B4622465021024829
:100D9000009603F01EFCF8BDB403002070B52DEDE5
:100DA000028B0024002512E0134800F0E5FB05212A
:100DB000114800F079FB104800F0FEFA04440E4898
:100DC00000F064FC01200BF0BBFC681CC5B2082DD0
:100DD000EADBE408600000EE100AB8EE400ADFED3E
:100DE000070A20EE200ADFED060A80EE208AB0EE28
:100DF000480ABDEC028B70BD4004002033335340E1
:100E00000000804500BFFEE700B587B0142102A8AE
:100E1000FFF788FA00BF002001901948006840F0F1
:100E20000200174908600846006800F002000190BF
:100E300000BF00BF00BF002001900846006840F0DE
:100E4000010008600846006800F00100019000BF42
:100E500000BF4FF400400290012003900490032053
:100E6000059002A9074800F0BDFE0122D103054804
:100E700000F0AEFF044803F02BFA07B000BD0000FD
:100E800030380240000002409C03002010B5A7202B
:100E900000F028F810BD10B5022000F023F810BDB6
:100EA0001CB501A804230322152100900B4803F070
:100EB00018FB9DF805009DF8041001F00F0140EAB1
:100EC0000120074908609DF807009DF8061001F011
:100ED0000F0140EA0120024948601CBD9C0300202C
:100EE0009403002010B5044622461521014803F062
:100EF0003FFB10BD9C03002070B504460D462B46F9
:100F000022461521014803F09BFB70BD9C03002085
:100F100010B500224FF40041074800F059FF0A20A5
:100F200000F04CFE0122D103034800F051FF642081
:100F300000F044FE10BD00000000024010B5042186
:100F4000014800F033FF10BD0000024010B5024818
:100F500000F054FC10BD00000005002010B5024850
:100F600000F04CFC10BD0000F005002010B5024858
:100F700000F044FC10BD0000500600200146087837
:100F800010381823B0FBF3F20848805CC865032AC8
:100F900005D908686FF30900001D886503E008683B
:100FA0006FF309008865886D704700009CDD0308B9
:100FB000014600208A6A8B69CBB932B1012A0DD073
:100FC000022A03D0032A10D10EE000BFCB6A03F03F
:100FD0008073B3F1807F00D1012007E0CB6AB3F1C9
:100FE000C07F00D1012001E000E000BF34E08B6948
:100FF000B3F5005F1AD132B1012A07D0022A03D01B
:10100000032A11D10AE000BF01200EE0CB6A03F0F1
:101010008073B3F1807F00D1012006E0CB6AB3F189
:10102000C07F00D1012000E000BF15E032B1012AED
:1010300005D0022A04D0032A0CD103E000BF00BF70
:10104000012008E0CB6A03F08073B3F1807F00D108
:10105000012000E000BF00BF704730B5046824687D
:1010600024F4802405682C60046863608468402C44
:1010700004D10468A2600468E16003E00468A16030
:101080000468E26030BD00001FB539E00020039025
:101090000123002203A91B48006830F0D1FF58BB90
:1010A000002201A9184801F009FD0122202168460B
:1010B00004F060FF9DF800009DF80610884207D0FC
:1010C000124890F8300018B91048816C0020884709
:1010D0000E49486C804704469DF806008DF80800CC
:1010E000200A8DF80900E0B28DF80A0003222021C1
:1010F00002A804F054FF00BF642030F04BFF00BF93
:10110000C4E70000B8000020880400200C00002084
:10111000704708B50A200BF013FB6A460221002035
:10112000FFF720FE9DF80000552805D19DF801002D
:10113000AA2801D1002008BD55208DF80000AA2062
:101140008DF801000A200BF0FBFA6A46022100200C
:10115000FFF716FE002000900A200BF0F1FA6A4615
:1011600002210020FFF7FEFD9DF80000552805D163
:101170009DF80100AA2801D10020DCE70120DAE770
:1011800010B5FFF7D5FD10BD72B600BFFEE738B54C
:10119000022004F023FD8DF80000012004F01EFD64
:1011A0008DF80100002004F019FD8DF802009DF873
:1011B00002409DF8010040EA04249DF8000040EA46
:1011C000042404F4000008B144F07F44204638BDF4
:1011D00038B5052004F002FD8DF80000042004F06D
:1011E000FDFC8DF80100032004F0F8FC8DF80200EE
:1011F0009DF802409DF8010040EA04249DF800009B
:1012000040EA042404F4000008B144F07F4420467E
:1012100038BD000038B502460020009000BF92F8AB
:101220003C00012801D1022038BD012082F83C0099
:1012300000BF0868092816D91068C0680C780A3CF5
:1012400004EB44050724AC40A0431468E0600C782C
:101250000A3C04EB44048868A0401468E468204316
:101260001468E06013E0106800690C7804EB440532
:101270000724AC40A043146820610C7804EB4404BC
:101280008868A04014682469204314682061486875
:10129000072817D21068406B0C79641E04EB840594
:1012A0001F24AC40A04314686063088880B20C79A6
:1012B000641E04EB8404A0401468646B204314682B
:1012C000606331E048680D2817D21068006B0C7914
:1012D000E41F04EB84051F24AC40A0431468206382
:1012E000088880B20C79E41F04EB8404A0401468E1
:1012F000246B20431468206316E01068C06A0C79E0
:101300000D3C04EB84051F24AC40A0431468E0624C
:10131000088880B20C790D3C04EB8404A04014686A
:10132000E46A20431468E0621E4B1F4C1068A04220
:101330000AD10868122807D1586820F400005860C4
:10134000586840F480005860174C1068A04222D1C1
:10135000164C0868A04202D0086811281BD15868B2
:1013600020F480005860586840F4000058600F4C2A
:101370000868A0420FD10E4800680E4CB0FBF4F094
:1013800000EB80004000009002E00098401E0090BA
:1013900000980028F9D100BF002082F83C0000BF6F
:1013A00000BF41E70023014000200140120000106F
:1013B0008003002040420F0001460868C06C70475F
:1013C00070B5044600250CB9012070BD1549A06A0E
:1013D000884200D000BF206C30B9204600F024F8CD
:1013E0000020606484F83C00206C00F0100088B994
:1013F000206C20F4885040F0020020642046FFF763
:10140000CBFA00206064206C20F0020040F0010064
:10141000206400E0012500BF002084F83C0000BFEC
:101420002846D2E70100000F10B586B0044614210B
:1014300001A8FEF777FF1949206888422BD100BF29
:10144000002000901648006840F48070144908603D
:101450000846006800F48070009000BF00BF00BF25
:10146000002000900E481438006840F001000C493C
:10147000143908600846006800F00100009000BFC1
:1014800000BF02200190032002900020039001A9D8
:10149000044800F0A7FB06B010BD0000002001408A
:1014A000443802400000024070B504460D46002654
:1014B0002068806800F48060B0F5806F11D12068EA
:1014C000806800F48070B0F5807F0AD1206C40F015
:1014D0002000206400BF002084F83C0000BF0120F1
:1014E00070BD00F07BFC064618E0681CB0B125B169
:1014F00000F074FC801BA84210D92068006800F03E
:10150000020002280AD0206C40F00400206400BFD2
:10151000002084F83C0000BF0320E1E72068006859
:1015200000F002000228E0D16FF01200216808608C
:10153000206C40F4007020642068806800F0405007
:10154000B8B9207EA8B92068C06A00F4700020B144
:101550002068806800F4806058B9206C20F48070A6
:101560002064206C00F4805018B9206C40F0010019
:1015700020640020B4E7000008B501460020009078
:1015800000BF91F83C00012801D1022008BD0120D4
:1015900081F83C0000BF0868806800F00100A0B935
:1015A0000868806840F001000B6898603348006864
:1015B000334BB0FBF3F000EB4000009002E00098EA
:1015C000401E009000980028F9D10868806800F05B
:1015D0000100002848D0086C40F20163984340F4B1
:1015E000807008640868406800F4806028B1086C66
:1015F00020F4005040F480500864086C00F48050DF
:10160000B0F5805F04D1486C20F00600486401E02A
:101610000020486400BF002081F83C0000BF194A48
:101620006FF022000B681860506800F01F0058B976
:101630000868806800F04050F0B90868806840F0A1
:1016400080400B68986017E00F4B0868984213D1F0
:101650000868806800F0405070B90868806840F001
:1016600080400B68986007E0086C40F01000086448
:10167000486C40F001004864002087E780030020A8
:1016800040420F000023014000200140014600BFFE
:1016900091F83C00012801D102207047012081F817
:1016A0003C0000BF0868806820F001000A68906074
:1016B0000868806800F0010028B9086C20F48850A0
:1016C00040F00100086400BF002081F83C0000BF2A
:1016D00000BFE2E710B504460CB9012010BD6079E7
:1016E00020B900202071204600F004F8012060712C
:1016F0000020F3E708B50A4A016891420FD100BF04
:10170000002100910749096841F48051054A1160A0
:101710001146096801F48051009100BF00BF08BD67
:10172000003002403038024070B50446A56D00F02C
:1017300055FB064694F83500022808D080206065E5
:1017400000BF002084F8340000BF012070BD206875
:10175000006820F01600216808602068406920F0C9
:10176000800021684861206C08B9A06C28B120680D
:10177000006820F00800216808602068006820F0F8
:1017800001002168086010E000F028FB801B05289C
:101790000BD920206065032084F8350000BF0020AD
:1017A00084F8340000BF0320D0E72068006800F010
:1017B00001000028E8D194F85C103F208840A86020
:1017C000012084F8350000BF002084F8340000BFF9
:1017D00000BFBBE7014691F83500022803D0802006
:1017E000486501207047052081F8350008680068C9
:1017F00020F001000A6810600020F3E7F8B5044605
:10180000002000908C4800684FF41651B0FBF1F7AF
:10181000A56D2E6894F85C1008208840304098B17F
:101820002068006800F0040070B12068006820F0B3
:1018300004002168086094F85C1008208840A860C3
:10184000606D40F00100606594F85C1001208840F4
:10185000304068B12068406900F0800040B194F8E1
:101860005C1001208840A860606D40F00200606557
:1018700094F85C1004208840304068B1206800680B
:1018800000F0020040B194F85C1004208840A86089
:10189000606D40F00400606594F85C101020884092
:1018A000304078B32068006800F0080050B394F826
:1018B0005C1010208840A8602068006800F4802038
:1018C00080B12068006800F4002028B9206CC8B1FD
:1018D0002046216C884715E0A06C98B12046A16C89
:1018E00088470FE02068006800F4807028B92068FD
:1018F000006820F0080021680860206C10B12046C4
:10190000216C884794F85C102020884030400028E3
:1019100065D02068006800F0100000285FD094F8BF
:101920005C1020208840A86094F83500052828D154
:101930002068006820F0160021680860206840696F
:1019400020F0800021684861206C08B9A06C28B1A3
:101950002068006820F008002168086094F85C1096
:101960003F208840A860012084F8350000BF002097
:1019700084F8340000BF206D10B12046216D8847E7
:10198000F8BD2068006800F4802080B120680068FD
:1019900000F4002028B9606C10B12046616C8847C3
:1019A0001DE0E06BD8B12046E16B884717E0206866
:1019B000006800F4807068B92068006820F01000AA
:1019C00021680860012084F8350000BF002084F8F9
:1019D000340000BFE06B10B12046E16B8847606DBA
:1019E00038B3606D00F00100F0B1052084F83500D7
:1019F0002068006820F001002168086000BF00989E
:101A0000401C0090B84200D905E02068006800F052
:101A100001000028F3D100BF012084F8350000BF89
:101A2000002084F8340000BFE06C10B12046E16C67
:101A3000884700BFA4E70000800300202DE9F041A3
:101A40000446002500F0CAF9074614B90120BDE894
:101A5000F081606A00B100BF022084F8350000BF49
:101A6000002084F8340000BF2068006820F00100E6
:101A7000216808600AE000F0B1F9C01B052805D90B
:101A800020206065032084F83500E0E720680068C6
:101A900000F001000028EED12068056821480540CB
:101AA000D4E901010843E1680843216908436169F9
:101AB0000843A1690843E1690843216A08430543D3
:101AC000606A042803D1D4E90B0108430543206868
:101AD00005602068456925F00705606A0543606A6E
:101AE00004280DD1A06A0543E06A48B12046FFF7FB
:101AF0005FFA28B140206065012084F83500A6E730
:101B0000206845612046FFF739FA064694F85C10D4
:101B10003F208840B06000206065012084F83500D7
:101B2000002094E73F8010F02DE9F04704460D4671
:101B300016461F464FF00008D4F8589000BF94F89E
:101B40003400012802D10220BDE8F087012084F88A
:101B5000340000BF94F83500012825D1022084F814
:101B60003500002060653B46324629462046FFF797
:101B700074FA94F85C103F208840C9F80800206887
:101B8000006840F0160021680860206C28B12068C9
:101B9000006840F00800216808602068006840F094
:101BA00001002168086006E000BF002084F83400CE
:101BB00000BF4FF002084046C6E7000070B504467B
:101BC00000F00CF906462546681C10B10448007860
:101BD000054400BF00F002F9801BA842FAD370BD93
:101BE0008C030020F8B502460B4600250024002097
:101BF0000021C7E0012606FA01F51E6806EA050481
:101C0000AC4274D11E7906F00306012E04D01E7971
:101C100006F00306022E13D190684F000326BE4043
:101C2000B0434F00DE68BE403043906050680126EC
:101C30008E40B0431E79C6F300168E40304350608C
:101C40001E7906F00306032E09D0D0684F00032644
:101C5000BE40B0434F009E68BE403043D0601E7906
:101C600006F00306022E13D1CF0802F1200656F823
:101C700027004E07F70E0F26BE40B0434F07FF0E5A
:101C80001E69BE403043CF0802F1200646F8270007
:101C900010684F000326BE40B0431E7906F00306CD
:101CA0004F00BE40304310605E6806F44036002EA0
:101CB00067D000BF00260096344E366846F4804652
:101CC000324F3E603E46366806F48046009600BFBE
:101CD00000BF2F4E8F0856F827008E07370F0F26AC
:101CE000BE40B0432B4EB24202D1002615E048E080
:101CF000294EB24201D101260FE0284EB24201D155
:101D000002260AE0264EB24201D1032605E0254E06
:101D1000B24201D1042600E007268F073F0FBE40E4
:101D200030431B4E8F0846F827001F4E3068A043F3
:101D30005E6806F4801606B120431B4E3060361DE7
:101D40003068A0435E6806F4001606B12043164EC4
:101D5000361D3060144E361F3068A0435E6806F4AE
:101D6000003606B12043104E361F3060361F3068F3
:101D7000A0435E6806F4803606B120430A4E083E52
:101D80003060491C1029FFF435AFF8BD44380240DB
:101D900008380140000002400004024000080240F0
:101DA000000C024000100240083C0140024613694A
:101DB0000B400BB1012000E00020704710B54269D4
:101DC00021EA020302EA010443EA0443836110BDED
:101DD0000AB1816101E00B0483617047014800682A
:101DE0007047000084030020034800680349097815
:101DF0000844014908607047840300208C030020D8
:101E000010B50D48006840F400700B4908600846A2
:101E1000006840F4806008600846006840F4807004
:101E20000860032000F0D6F80F2000F007F800F05B
:101E300055F8002010BD0000003C0240F0B587B00E
:101E400004460026002700BF002000901E480068BE
:101E500040F001001C4908600846006800F00100DD
:101E6000009000BF00BF01A902A800F065FA00F0D1
:101E70009BFA06461548B6FBF0F0471E1448154974
:101E8000086040F2E7311348C160476000210161FA
:101E90008160816101F09AFA054695B90D4801F01B
:101EA000C9FA05466DB9192000F042F8102C07D286
:101EB00000222146192000F04FF80748046000E096
:101EC0000125284607B0F0BD4438024040420F00CB
:101ED00000000140B00600208803002008B500BFC4
:101EE000002000901148006840F480400F490860CD
:101EF0000846006800F48040009000BF00BF00BFAB
:101F000000200090081F006840F08050091F086002
:101F10000846006800F08050009000BF00BF00221B
:101F20000F21901E00F018F808BD00004438024050
:101F30000146084600280DDB00BF00BF00F01F036C
:101F400001229A4043099B0003F1E023C3F80021DA
:101F500000BF00BF00BF70472DE9F05F80460D460F
:101F60001646002704F0E8FC074639462A46334661
:101F700001F00700C0F1070ABAF1040F02D94FF0CF
:101F8000040A01E0C0F1070AD14600F1040ABAF1DF
:101F9000070F02D24FF0000A01E0A0F1030AD44675
:101FA0004FF0010A0AFA09FAAAF1010A0AEA020A3A
:101FB0000AFA0CFA4FF0010B0BFA0CFBABF1010B18
:101FC0000BEA030B4AEA0B042146404604F0BCFC32
:101FD000BDE8F09F00BF00F00702064B19684FF6FE
:101FE000FF031940044B0B4343EA0221014B1960E4
:101FF00000BF70470CED00E00000FA05F8B504469C
:1020000000250026207800F0010020B9207800F09B
:102010000400042831D1002060498866FFF7DEFE05
:10202000054606E0FFF7DAFE401B022801D903202F
:10203000F8BD5B480068C0F3C0600028F2D1D4E965
:10204000011041EA8011207B41EA0070544984313B
:102050000860012051498866FFF7C0FE054606E08A
:10206000FFF7BCFE401B022801D90320E0E74C48E3
:102070000068C0F3C0600028F2D0207800F00200B1
:1020800002287DD100BF0020009045484030006804
:1020900040F080504249403108600846006800F036
:1020A0008050009000BF00BF3E48006840F4807040
:1020B0003C490860FFF792FE054606E0FFF78EFEFA
:1020C000401B022801D90320B2E73648006800F41B
:1020D00080700028F2D032487030006800F44076FA
:1020E0004EB3208A00F44070B04224D02C487030A7
:1020F000006820F4407601202B4908600020086029
:10210000274870300660006800F0010098B1FFF7C2
:1021100065FE054608E0FFF761FE401B41F288318D
:10212000884201D9032083E71D4870300068C0F35E
:1021300040000028EFD000BF208A00F44070B0F5C6
:10214000407F0CD116480830006820F4F810174A78
:1021500021691140084312490831086007E010481E
:102160000830006820F4F8100D49083108600C4868
:1021700070300068218AC1F30B010843084900E070
:1021800002E07031086000BF207800F008000828E5
:1021900002D1207D06490860002049E7000047423F
:1021A0000038024000700040400E4742FFFCFF0F25
:1021B000E011474270B504460D460CB9012070BDD0
:1021C0005848006800F00700A84209D255490D7030
:1021D0000846006800F00700A84201D00120EEE7A1
:1021E000207800F0020002281DD1207800F00400C1
:1021F000042805D14C48006840F4E0504A49086082
:10220000207800F00800082805D14748006840F40D
:102210006040454908604448006820F0F000A1682B
:10222000084341490860207800F00100A8B36068C5
:10223000012807D13C4808380068C0F34040B8B9CD
:102240000120BCE76068022802D06068032807D13B
:10225000354808380068C0F3406048B90120AEE74F
:10226000314808380068C0F3400008B90120A6E7EB
:102270002D48006820F00300616808432A4908607F
:10228000FFF7ACFD064609E0FFF7A8FD801B41F211
:102290008831884202D9032091E707E0224800688C
:1022A00000F00C006168B0EB810FEDD11D480068B3
:1022B00000F00700A84209D91A490D7008460068C5
:1022C00000F00700A84201D0012078E7207800F054
:1022D0000400042807D11448006820F4E050E168A5
:1022E000084311490860207800F00800082808D148
:1022F0000D48006820F46040216940EAC1000A49A5
:10230000086000F061F808490968C1F30311074A41
:10231000515CC8400649086006480068FFF78EFD1A
:1023200000204CE7003C02400838024084DD0308EE
:1023300080030020880300200F2202600D4A1268EB
:1023400002F0030242600B4A126802F0F00282605F
:10235000084A126802F4E052C260064A126802F4A7
:102360006042D2080261044A126802F007020A6061
:102370007047000008380240003C024001480068F5
:10238000704700008003002000B5FFF7F7FF044905
:102390000968C1F38221034A515CC84000BD0000B6
:1023A0000838024094DD030800B5FFF7E7FF044951
:1023B0000968C1F34231034A515CC84000BD0000C6
:1023C0000838024094DD03082DE9F0470024002579
:1023D0000026A1462548006800F00C0020B1042822
:1023E00005D008283AD105E0DFF8849039E0DFF81D
:1023F000849036E01D48001F006800F03F041B4831
:10240000001F006800F4800078B11A481749091FBE
:102410000968C1F38811A0FB017001462246002320
:102420003846FDF735FF05460EE011480F49091FF4
:102430000968C1F38811A0FB017001462246002300
:102440003846FDF725FF05460848001F0068C0F321
:102450000140401C4600B5FBF6F902E0DFF81090A1
:1024600000BF00BF4846BDE8F087000008380240C2
:102470000024F40040787D01F8B504460CB9012031
:10248000F8BD207800F00100002874D0F9480068F9
:1024900000F00C0004280DD0F648006800F00C0095
:1024A000082813D1F348001F006800F48000B0F53D
:1024B000800F0BD1EF4808380068C0F34040002877
:1024C00059D06068002856D10120D9E700BF606864
:1024D000B0F5803F08D1E7480838006840F4803004
:1024E000E449083908601EE06068B0F5A02F0DD1FE
:1024F000E0480838006840F48020DE490839086068
:102500000846006840F4803008600CE0D94808387C
:10251000006820F48030D749083908600846006810
:1025200020F48020086000BF606890B1FFF756FC7F
:10253000054606E0FFF752FC401B642801D9032042
:102540009EE7CC4808380068C0F340400028F1D02E
:1025500011E0FFF743FC054606E0FFF73FFC401B98
:10256000642801D903208BE7C24808380068C0F30B
:1025700040400028F1D1207800F0020002285FD10D
:10258000BC48006800F00C0058B1BA48006800F080
:102590000C0008281CD1B748001F006800F4800018
:1025A000B0B9B44808380068C0F3400020B1E06812
:1025B000012801D0012063E7AE480838006820F008
:1025C000F800216940EAC100AA490839086037E0EB
:1025D000E06800B30120A8490860FFF7FFFB05464B
:1025E00006E0FFF7FBFB401B022801D9032047E769
:1025F000A04808380068C0F340000028F1D09D488A
:102600000838006820F0F800216940EAC1009949C3
:102610000839086014E0002097490860FFF7DEFBE6
:10262000054606E0FFF7DAFB401B022801D903202C
:1026300026E7904808380068C0F340000028F1D130
:10264000207800F0080008282CD16069A8B101208A
:102650008A490860FFF7C2FB054606E0FFF7BEFBAC
:10266000401B022801D903200AE782486C30006829
:10267000C0F340000028F1D014E000207F4908603A
:10268000FFF7ACFB054606E0FFF7A8FB401B02285E
:1026900001D90320F4E677486C300068C0F34000AD
:1026A0000028F1D1207800F00400042870D1002720
:1026B00070483830006800F0805090B900BF0020AA
:1026C00000906C483830006840F0805069493831DB
:1026D00008600846006800F08050009000BF00BF0E
:1026E00001276748006800F48070B0B9644800684A
:1026F00040F4807062490860FFF770FB054606E011
:10270000FFF76CFB401B022801D90320B8E65C48A8
:10271000006800F480700028F2D000BFA068012893
:1027200008D154486830006840F0010051496831D0
:1027300008601DE0A06805280DD14E48683000688B
:1027400040F004004B49683108600846006840F0DA
:10275000010008600CE047486830006820F0010084
:102760004449683108600846006820F004000860A9
:1027700000BFA068A8B1FFF731FB054609E0FFF7ED
:102780002DFB401B41F28831884202D9032077E6B5
:1027900026E0384868300068C0F340000028EED0DA
:1027A00013E0FFF71BFB054608E0FFF717FB401B94
:1027B00041F28831884201D9032061E62D48683012
:1027C0000068C0F340000028EFD1012F07D129484D
:1027D0003830006820F0805026493831086000BF4A
:1027E000A069002845D02348006800F00C000828A4
:1027F0005DD0A069022845D100201F490866FFF777
:10280000EDFA054606E0FFF7E9FA401B022801D978
:10281000032035E6174808380068C0F340600028F8
:10282000F1D1D4E907010843616A40EA811101222C
:10283000A06AC2EB500041EA00412C20005D41EA51
:1028400000600C49091F086001200B490866FFF76A
:10285000C5FA054606E0FFF7C1FA401B022801D978
:1028600003200DE6034808380068C0F340600028E4
:10287000F1D049E00838024000004742800E47424C
:1028800000700040002021490866FFF7A7FA0546BE
:1028900006E0FFF7A3FA401B022801D90320EFE569
:1028A0001B480068C0F340600028F2D12CE0A0690A
:1028B000012800D1E4E51648001D0668A06901283A
:1028C00020D006F48001E06981421BD106F03F016F
:1028D000206A814216D147F6C0703040616AB0EB81
:1028E000811F0FD106F440310122A06AC2EB5000D3
:1028F000B1EB004F06D106F070612C20005DB1EB0A
:10290000006F01D00120BBE50020B9E5000047427F
:102910000038024002460023106800F1500303EB28
:1029200081031868704710B50023046804F1500350
:1029300003EB81031A6010BD18B503464E480068CA
:1029400040094FF47A74B0FBF4F06043009000BF8C
:10295000187F012801D1022018BD0120187700BF7F
:102960000220587700BFCA201C68606253201C6890
:10297000606200BF1868806800F48060C0B100BF6A
:102980000098401E0090009860B900BFFF201C68AE
:10299000606200BF0320587700BF0020187700BF97
:1029A0000320D9E71868C068C0F380000028E7D189
:1029B0001868806820F480601C68A0601868C0688F
:1029C00000F0800060F490601C68E0602A480068B5
:1029D00040094FF47A74B0FBF4F06043009000BFFC
:1029E0000098401E0090009860B900BFFF201C684E
:1029F000606200BF0320587700BF0020187700BF37
:102A00000320A9E71868C068C0F380000028E7D059
:102A10001868806820F007001C68A060186880684B
:102A200010431C68A060186841611448006840F4B5
:102A30008000124C206011480830006840F480008B
:102A40000E4C083420601868806840F480401C6890
:102A5000A0601868806840F480601C68A06000BFB7
:102A6000FF201C68606200BF0120587700BF002073
:102A7000187700BF00BF6FE780030020003C0140D3
:102A80007047000010B504464FF480000A49086002
:102A90002068C068C0F3802050B12068C06800F092
:102AA000800060F490602168C8602046FFF7E8FF6E
:102AB0000120607710BD0000143C014070B5054650
:102AC0000B4616460024286840680E4900EA0104B7
:102AD000200CD870C4F30420587004F03F009870A4
:102AE000C4F3423018705EB9D87802F085FED87011
:102AF000587802F081FE5870987802F07DFE987048
:102B0000002070BD3FFFFF0070B504460B4616461F
:102B100000252068806A586020680069C0F30E00B4
:102B20009860206800680E4900EA0105C5F3054079
:102B30001870C5F30620587005F07F009870A80D36
:102B4000D8705EB9187802F057FE1870587802F005
:102B500053FE5870987802F04FFE9870002070BDB8
:102B60007F7F7F0070B504460CB9012070BD607F87
:102B700020B900202077204600F04EF80220607730
:102B80002068C068C0F3001000283CD100BFCA20F4
:102B90002168486253202168486200BF204602F045
:102BA00043FE0546EDB9206880681A49084021684F
:102BB0008860216960680843616908432168896801
:102BC0000843216888602168E0680861206801691D
:102BD000208941EA004021680861204602F049FE50
:102BE00005465DB92068006C20F4802021680864E7
:102BF0002068006CA16908432168086400BFFF20B9
:102C00002168486200E000250DB901206077284660
:102C1000ACE70000BFFF8FFF10B586B00446182157
:102C20006846FDF77FFB0D492068884214D10220D9
:102C30000090C00104906846FFF7E0F908B1FEF784
:102C4000A3FA012006490860002205210320FFF7AE
:102C500083F90320FFF76CF906B010BD002800408F
:102C60003C0E47422DE9F04105460C4617464FF011
:102C7000000800BF287F012802D10220BDE8F081B2
:102C80000120287700BF022068774FB9607800F0F4
:102C90001000102804D1607800F0EF000A30607056
:102CA00087B9E07802F0B3FD0304607802F0AFFD6D
:102CB00043EA0023A07802F0AAFD0343207843EA08
:102CC000403809E0E0780004617840EA0120A1780A
:102CD0000843217840EA413800BFCA202968486289
:102CE00053202968486200BF284602F09DFD064631
:102CF00046B90B4808EA000029684860284602F0F7
:102D0000B8FD06460EB90120687700BFFF2029688C
:102D1000486200BF00BF0020287700BF3046ADE703
:102D20003FFFFF002DE9F04104460D4617464FF0E6
:102D3000000800BF207F012802D10220BDE8F081F9
:102D40000120207700BF02206077CFB9206880681B
:102D500000F0400000B102E00020E87000BF2878D9
:102D600002F055FD0304687802F051FD43EA0023A8
:102D7000A87802F04CFD0343E87843EA805812E05B
:102D80002068806800F0400000B102E00020E87098
:102D900000BF28780004697840EA0120A978084338
:102DA000E97840EA815800BFCA2021684862532070
:102DB0002168486200BF204602F036FD0646B6B9DB
:102DC000124808EA0000216808602068806820F442
:102DD000802021688860D5E903010843216889685B
:102DE000084321688860204602F043FD06460EB97C
:102DF0000120607700BFFF202168486200BF00BF4C
:102E00000020207700BF304698E700007F7F7F00DA
:102E100070B5044600250B482168C860FEF7DEFF48
:102E2000054607E0FEF7DAFF401BB0F57A7F01D9CF
:102E3000032070BD2068C06800F020000028F1D099
:102E40000020F6E75F3F0100704710B504460CB95B
:102E5000012010BD606A38B96068B0F5827F00D18A
:102E600005E00021E16102E00021216161610021B2
:102E7000A16294F8510028B9002084F8500020463F
:102E800000F048F8022084F851002068006820F023
:102E9000400021680860A08800F48270218901F454
:102EA00004410843A18901F400610843217C01F039
:102EB00002010843217D01F001010843218B01F447
:102EC00000710843217F01F0380108432021095D8A
:102ED00001F080010843218D01F40051084321686D
:102EE00008600421A06901EA104094F8241001F060
:102EF00010010843216848602068C06920F4006020
:102F00002168C86100206065012084F8510000201C
:102F10009FE7000010B586B00446142101A8FDF714
:102F200001FA2A49206888424DD100BF0020009054
:102F30002748006840F4805025490860084600682A
:102F400000F48050009000BF00BF00BF0020009040
:102F50001F481438006840F002001D491439086009
:102F60000846006800F00200009000BF00BF282063
:102F7000019002200290002003900320049005207D
:102F8000059001A91348FEF72DFE13481349086068
:102F90004FF0806048604021104881600021C1608E
:102FA0004FF480610161002141618161C161016271
:102FB0004162FEF743FD08B1FEF7E6F800BF07489F
:102FC000A064846300BF06B010BD00000030014063
:102FD00044380240000402404064024000050020E2
:102FE0002DE9F84304460F4616461D46FEF7F6FE49
:102FF0008046B14694F85100012802D00220BDE875
:10300000F88307B10EB90120F9E700BF94F850002A
:10301000012801D10220F2E7012084F8500000BF0E
:10302000032084F85100002060652763A686E686A9
:10303000A063A087E08760642064A068B0F5004FBB
:103040000BD12068006820F04000216808602068EB
:10305000006840F48040216808602068006800F043
:103060004000402805D02068006840F040002168FA
:103070000860E068B0F5006F37D1606810B1B9F151
:10308000010F09D1206B00882168C860206B801C6B
:103090002063E08E401EE08623E02068806800F018
:1030A000020002280AD1206B00882168C860206BCA
:1030B000801C2063E08E401EE08612E0FEF78EFE4C
:1030C000A0EB0800A84201D3681C00B94DB901204B
:1030D00084F8510000BF002084F8500000BF032096
:1030E0008DE7E08E0028D8D136E0606810B1B9F1E4
:1030F000010F09D1206B007821680873206B401CF8
:103100002063E08E401EE08623E02068806800F0A7
:10311000020002280AD1206B007821680873206B16
:10312000401C2063E08E401EE08612E0FEF756FE53
:10313000A0EB0800A84201D3681C00B94DB90120DA
:1031400084F8510000BF002084F8500000BF032025
:1031500055E7E08E0028D8D142462946204602F0A5
:103160008DFC08B120206065A06850B900BF002028
:1031700000902068C068009020688068009000BFC0
:1031800000BF012084F8510000BF002084F85000E7
:1031900000BF606D08B1012031E700202FE700007B
:1031A0002DE9F04104460E46154694F851000128D9
:1031B00002D00220BDE8F08106B10DB90120F9E787
:1031C00000BF94F85000012801D10220F2E701204D
:1031D00084F8500000BF032084F85100002060658F
:1031E0002663A586E586A06360642064A087E087E7
:1031F000A068B0F5004F0BD12068006820F04000B7
:10320000216808602068006840F4804021680860F8
:103210001F48A16C08641F48A16CC8631E48A16CBC
:10322000C8640020A16C0865E38E276807F10C02D2
:10323000216BA06CFEF778FC50B1606D40F010007F
:10324000606500BF002084F8500000BF0120B1E796
:103250002068006800F04000402805D02068006821
:1032600040F040002168086000BF002084F8500052
:1032700000BF2068406840F0200021684860206856
:10328000406840F0020021684860002092E700009A
:10329000EF590008FD590008C759000810B5044649
:1032A0000849206888420CD100BF2068806800F07F
:1032B00080000028F9D10448006810B10248006875
:1032C000804710BD00300140900300207047042863
:1032D00008D14FF0E021096941F004014FF0E022EC
:1032E000116107E04FF0E021096921F004014FF07E
:1032F000E0221161704770B504462546681EB0F1A2
:10330000807F01D301200FE0681E4FF0E02148616B
:103310000F214FF0FF3003F017FB00204FF0E021AA
:10332000886107200861002070BD70477047000069
:1033300030B502460B4600BF92F83C00012801D18F
:10334000022030BD012082F83C0000BF022082F83C
:103350003D00106844681068816824F070041868A3
:10336000044310684460144D1068A84213D01068DC
:10337000B0F1804F0FD0114D1068A8420BD0104D06
:103380001068A84207D00F4D1068A84203D00E4D18
:103390001068A84205D121F08001586801431068E7
:1033A0008160012082F83D0000BF002082F83C00CF
:1033B00000BF00BFC5E7000000000140000400405E
:1033C00000080040000C00400040014010B50446D9
:1033D0000CB9012010BD94F83D0028B9002084F8F4
:1033E0003C00204600F025F8022084F83D00211D15
:1033F000206802F071FE012084F8460000BF84F8C6
:103400003E0001213F20015540200155412001553A
:1034100000BF00BF012084F8420043200155442032
:1034200001554520015500BF012084F83D000020D2
:10343000D0E77047014691F83D00012801D00120F6
:103440007047022081F83D000868C06840F0010024
:103450000B68D860164B0868984213D00868B0F122
:10346000804F0FD0134B086898420BD0124B08685E
:10347000984207D0114B0868984203D0104B086857
:1034800098420CD10868806800F00702062A0CD028
:103490000868006840F001000B68186005E00868E3
:1034A000006840F001000B6818600020C8E70000C9
:1034B000000001400004004000080040000C0040F3
:1034C00000400140704770B504462068C568206818
:1034D000066906F00200022819D105F00200022850
:1034E00015D1401F2168086101202077206880697C
:1034F00000F0030018B12046FFF7E4FF05E0204686
:1035000000F0C8F8204600F095F90020207706F07A
:103510000400042819D105F00400042815D1C04383
:1035200021680861022020772068806900F44070DB
:1035300018B12046FFF7C6FF05E0204600F0AAF8C4
:10354000204600F077F90020207706F008000828D0
:1035500019D105F00800082815D1C0432168086179
:10356000042020772068C06900F0030018B12046CD
:10357000FFF7A8FF05E0204600F08CF8204600F099
:1035800059F90020207706F01000102819D105F015
:103590001000102815D1C043216808610820207749
:1035A0002068C06900F4407018B12046FFF78AFF18
:1035B00005E0204600F06EF8204600F03BF90020C0
:1035C000207706F0010048B105F0010030B16FF03E
:1035D000010021680861204600F0A4F906F080008F
:1035E000802809D105F08000802805D1C0432168DA
:1035F00008612046FFF799FE06F04000402809D1F7
:1036000005F04000402805D1C043216808612046EC
:1036100000F094F906F02000202809D105F02000E0
:10362000202805D1C043216808612046FFF77EFEAF
:1036300070BD000010B586B00446142101A8FCF747
:1036400071FE1149206888421CD100BF0020009003
:103650000E48006840F002000C4908600846006807
:1036600000F00200009000BF00BF01200190022086
:1036700002900020039004900220059001A90448C4
:10368000FEF7B0FA06B010BD00040040303802402A
:103690000004024070472DE9F04104460D461646ED
:1036A000002700BF94F83C00012802D10220BDE8A9
:1036B000F081012084F83C0000BF36B1042E1BD0FD
:1036C000082E31D00C2E5ED145E02946206802F04C
:1036D0006BFD2068806940F00800216888612068DF
:1036E000806920F004002168886120688069296968
:1036F00008432168886148E02946206802F084FD7B
:103700002068806940F400602168886120688069D1
:1037100020F480602168886120688069296940EA16
:1037200001202168886130E02946206802F0A0FD70
:103730002068C06940F008002168C8612068C0693D
:1037400020F004002168C8612068C0692969084325
:103750002168C86119E02946206802F0BDFD206893
:10376000C06940F400602168C8612068C06920F425
:1037700080602168C8612068C069296940EA012029
:103780002168C86101E0012700BF00BF00BF002021
:1037900084F83C0000BF384689E710B504460CB9F0
:1037A000012010BD94F83D0028B9002084F83C00A9
:1037B000204600F025F8022084F83D00211D2068F5
:1037C00002F08AFC012084F8460000BF84F83E0025
:1037D00001213F200155402001554120015500BFE6
:1037E00000BF012084F842004320015544200155C8
:1037F0004520015500BF012084F83D000020D0E79E
:1038000008B50A4A016891420FD100BF002100911A
:103810000749096841F00201054A1160114609682B
:1038200001F00201009100BF00BF08BD000400408C
:10383000403802407047000070B504460D4615B987
:1038400094F83E000BE0042D02D13F20005D06E01D
:10385000082D02D14020005D01E04120005D0128DB
:1038600001D0012070BD1DB9022084F83E000EE099
:10387000042D03D102213F20015508E0082D03D17A
:1038800002214020015502E0022141200155012280
:103890002946206802F076FC1D492068884201D143
:1038A000012000E0002028B12068406C40F4004076
:1038B0002168486416492068884213D02068B0F116
:1038C000804F0FD01349206888420BD012492068DE
:1038D000884207D011492068884203D010492068E7
:1038E00088420CD12068806800F00706062E0CD0B4
:1038F0002068006840F001002168086005E0206849
:10390000006840F00100216808600020AAE700007C
:10391000000001400004004000080040000C00408E
:103920000040014010B5044603492068884201D197
:10393000FEF75AFA10BD00000000014070477047C2
:10394000704700002DE9F84F04462068056820689C
:10395000C668206847694FF00009CA4605F00F099C
:10396000B9F1000F0AD105F0200038B106F02000AF
:1039700020B1204602F02EFDBDE8F88FB9F1000F0E
:103980007CD007F0010018B906F49070002875D0BB
:1039900005F0010030B106F4807018B1606C40F0A1
:1039A0000100606405F0040030B107F0010018B1B7
:1039B000606C40F00200606405F0020030B107F076
:1039C000010018B1606C40F00400606405F008006C
:1039D00048B106F0200010B907F0010018B1606C82
:1039E00040F008006064606C002846D005F02000BC
:1039F00028B106F0200010B1204602F0EBFC206850
:103A00004069C0F3801A606C00F0080010B9BAF188
:103A1000000F2DD0204602F097FC2068406900F08E
:103A20004000402820D100BF00BF2168143151E878
:103A3000001F21F040002168143141E80002002AF3
:103A4000F3D100BFE06B50B17F48E16B0865E06BDC
:103A5000FDF7C0FE88B1E06B016D88470DE02046A0
:103A6000FFF76EFF09E009E02046FFF769FF04E079
:103A70002046FFF765FF002060647DE7206B01288A
:103A800078D105F01000002874D006F0100000284E
:103A9000FAD000BF002000902068006800902068E5
:103AA0004068009000BF00BF2068406900F04000FF
:103AB000402870D1E06B006840681FFA80F8B8F1C8
:103AC000000F58D0A08D404555DDA4F82E80E06B46
:103AD000C069B0F5807F43D000BF00BF21680C31C2
:103AE00051E8001F21F4807021680C3141E8000288
:103AF000002AF3D100BF00BF00BF2168143151E894
:103B0000001F21F001002168143141E80002002A61
:103B1000F3D100BF00BF00BF2168143151E8001F7E
:103B200021F040002168143141E80002002AF3D15D
:103B300000BF202084F842000020206300BF00BFA7
:103B400021680C3151E8001F21F0100021680C3170
:103B500041E80002002AF3D100BFE06BFDF7E4FD6D
:103B600002206063A08DE28D801A81B22046FFF7AB
:103B7000E6FE0EE052E0A08D40450AD1E06BC06940
:103B8000B0F5807F05D102206063A18D2046FFF74C
:103B9000D6FEF1E6FFE7A08DE18D401A1FFA80F80E
:103BA000E08DD0B3B8F1000F37D000BF00BF21685F
:103BB0000C3151E8001F21F4907021680C3141E86C
:103BC0000002002AF3D100BF00BF00BF21681431FA
:103BD00051E8001F21F001002168143141E8000282
:103BE000002AF3D100BF202084F842000020206387
:103BF00000BF00BF21680C3151E8001F21F0100008
:103C000021680C3141E80002002AF3D100BF0220F4
:103C1000606341462046FFF792FEADE605F0800066
:103C200030B106F0800018B1204602F067FDA3E62F
:103C300005F0400030B106F0400018B1204602F017
:103C4000B9FB99E600BF97E63763000810B5044654
:103C50000CB9012010BDA06900B100E000BF94F8CC
:103C6000410028B9002084F84000204600F02AF8DE
:103C7000242084F841002068C06820F400502168A6
:103C8000C860204602F024FC2068006920F49040BF
:103C9000216808612068406920F02A002168486195
:103CA0002068C06840F400502168C860002060644B
:103CB000202084F8410084F842000020606300BFA7
:103CC000C8E7000010B586B00446142101A8FCF72F
:103CD00029FB3D492068884274D100BF0020009034
:103CE0003A48006840F0100038490860084600680B
:103CF00000F01000009000BF00BF00BF0020009047
:103D000032481438006840F0010030491439086026
:103D10000846006800F00100009000BF00BF4FF4AB
:103D2000C0600190022002900020039003200490C4
:103D30000720059001A92648FDF754FF254826498C
:103D400008604FF000604860002123488160C16036
:103D50004FF480610161002141618161C1610162B3
:103D60004162FDF76BFE08B1FDF70EFA00BF1A487D
:103D7000E063846300BF17483030184908604FF093
:103D8000006048604021154881600021C1604FF407
:103D900080610161002141618161C1610162416213
:103DA000FDF74CFE08B1FDF7EFF900BF0B48A0632B
:103DB000846300BF002205212520FEF7CDF82520D1
:103DC000FEF7B6F806B010BD0010014044380240BE
:103DD0000000024088640240F005002050060020E8
:103DE0007047704770B504460D46044890F84C0083
:103DF00018B929462046FCF7A1FE70BD0C00002032
:103E000010B5FCF779FE10BD70477047704710B5CC
:103E100001F0FCFE10BD10B501F00AF810BD10B5A0
:103E200001F072F810BD00207047704710B50446CD
:103E3000204600F0C1FE10BD08B5002000900548E6
:103E400090F8300010B9684608F03AFE009880B249
:103E500008BD00000C00002010B52DF099F810BD31
:103E600010B50446054890F8300018B9204608F00F
:103E70008DFE10BD4FF0FF30FBE700000C0000206E
:103E80000021024880F83510704700000C00002027
:103E90000121024880F83510704700000C00002016
:103EA00010B501F0B5FA10BD10B501F0CFFB10BD93
:103EB00010B501F0B7FB10BD10B586B004461CB3B9
:103EC000002269461148FEF71FFE002205A90F488F
:103ED000FEF7F4FD9DF81700E0709DF81500607086
:103EE0009DF81600A070A2786178E078142334F071
:103EF00002FE20709DF8000020719DF801006071A5
:103F00009DF80200A07100BF06B010BD880400201B
:103F100070B504460D46164632462946204601F045
:103F2000BFFC70BD70B504460D46164632462946A4
:103F3000204601F0D5FC70BD2DE9F04104460D4648
:103F4000012D01D0022D04D1601EC4B205F10C0078
:103F5000C5B26F1C4FF01A0C07FB0CF74FF00A0CA0
:103F600097FBFCF74FEAE47C04EB9C7C04EBAC0C85
:103F70004FEAE37803EB98780CEBA80C67441744FE
:103F80007F1E4FF0020C0CFB137100E0C91D0029CD
:103F9000FCDB072091FBF0F600FB161101B900E0F5
:103FA00008460146C8B2BDE8F08100BFFEE7000048
:103FB0000EB5B9E034F05CFC00F012FF00224FF4C3
:103FC000FA615A48FEF7B8FC08B1FDF7DDF80821A0
:103FD0005748FFF731FC08F09DFB5649086A8047B7
:103FE00000F01EFC032407E0601EC4B25149886B38
:103FF0008047504981F8300024B14E4890F8300095
:104000000028F1D1FDF7BCF8FDF783F828BB0322A7
:10401000202102A801F0AEFF002201A94348FEF7CB
:104020004DFD9DF808009DF8061088420DD19DF8C1
:104030000A009DF8091040EA01253E4890F830003A
:1040400010B9284608F0A2FD06E03A4890F8300082
:1040500010B9002008F09AFD00BF032407E0601E9D
:10406000C4B23449086D8047324981F84C0024B10C
:10407000304890F84C000028F1D1032407E0601E7E
:10408000C4B22C49C86D80472A4981F8580024B130
:10409000284890F858000028F1D1FCF7B5FEFCF74D
:1040A00037FF00F0A7FC00204FF48C73F02201468C
:1040B000009000F049FC0A2008F042FB00F06EFD81
:1040C000502000F079FD00201821CDE900014FF6C5
:1040D000FF7319A2782102903C2000F029FE0020F5
:1040E0001021CDE900014FF6FF7315A2A021029027
:1040F000222000F01DFE4FF47A7008F021FB002012
:10410000BD23F0227421009000F01EFC20F06AF81C
:1041100027F080FF27F0A2FF33F0CAFF35F07AFBCB
:10412000002034F097FA00BF44E700008804002024
:10413000600500200C0000204C4344204F4B210020
:104140004F562D57617463682056322E342E350039
:1041500070B588B006464548016801A888479DF8B3
:1041600008004349097888420ED09DF8080040496C
:104170000870084602783FA103A802F0B5FB03A926
:104180003D48006821F07AFA9DF809003B4909781A
:1041900088420ED09DF80900384908700846027818
:1041A00037A103A802F0A0FB03A93748006821F05B
:1041B00065FA9DF807003549097888420BD19DF8CA
:1041C000050033490978884205D19DF80600314938
:1041D000097888421BD09DF807002C4908709DF88B
:1041E00005002B4908709DF806002A49087008460A
:1041F00000780090264803782448027826A103A876
:1042000002F072FB03A92948006821F037FA174928
:10421000486C8047044626480480028825A103A8EC
:1042200002F062FB03A92448006821F027FA234822
:104230000078401CC0B221490870142814DB00200B
:1042400008700A48057F1E480078A8420BD01C4819
:10425000057002781BA103A802F046FB03A91B48C6
:10426000006821F00BFA00BF08B070BD0C00002000
:10427000DC00002025326400C4000020DD000020A6
:104280002530326400000000C8000020DE0000205D
:10429000DF000020E00000203230253032642D2580
:1042A0003032642D2530326400000000CC00002044
:1042B000E200002025640000D0000020E50000207E
:1042C000E40000202564252500000000D400002023
:1042D00010B586B00446142101A8FCF723F8208904
:1042E00001900120029003900220049001A920680F
:1042F000FDF778FC6089019001A96068FDF772FC08
:1043000006B010BD70B5054608260024284601F009
:1043100023FB13E06006040E0021284601F004FB95
:10432000022008F019FA0121284601F0FDFA0120C7
:1043300008F012FA284601F004FB0443301EA6F1EF
:104340000101CEB2E6D10021284601F0EDFA28465F
:1043500001F024FB204670BD10B504460021204624
:1043600001F00FFB012008F0F7F90121204601F0D0
:10437000DBFA012008F0F0F90021204601F0D4FA20
:10438000012008F0E9F910BD70B505460C46082675
:104390001AE00021284601F0C7FA022008F0DCF9F3
:1043A00004F08001284601F0ECFA012008F0D4F96D
:1043B0006006040E012008F0CFF90121284601F023
:1043C000B3FA012008F0C8F9301EA6F10101CEB2FF
:1043D000DFD10021284601F0A7FA022008F0BCF93D
:1043E00070BD10B504460121204601F0CAFA012033
:1043F00008F0B2F90121204601F096FA012008F0F8
:10440000ABF90021204601F08FFA022008F0A4F950
:1044100010BD10B504460121204601F0B2FA022079
:1044200008F09AF90121204601F07EFA012008F0F7
:1044300093F90021204601F0A4FA012008F08CF93C
:104440000021204601F070FA012008F085F910BD26
:1044500010B504460021204601F066FA022008F05B
:104460007BF90021204601F08CFA012008F074F954
:104470000121204601F058FA012008F06DF90121D0
:10448000204601F07EFA012008F066F910BD70B5F3
:1044900005460524284601F05FFA0121284601F06F
:1044A00043FA0DE0601E84B2012008F055F93CB9D2
:1044B000284601F073FA2846FFF7CAFF012070BDB5
:1044C000284601F03EFA0028ECD1284601F066FAB1
:1044D0000021284601F028FA022008F03DF90020CA
:1044E000EDE72DE9F04780460D4617461E46DDF8FC
:1044F00020904046FFF78DFF6806010E4046FFF70B
:1045000043FF4046FFF7C3FF28B14046FFF7A0FF37
:104510000120BDE8F08739464046FFF735FF4046A9
:10452000FFF7B5FF4046FFF774FF012000EB4500A1
:10453000C1B24046FFF728FF4046FFF7A8FF00241E
:104540000CE04046FFF7DEFE09F80400701EA042B2
:1045500002DD4046FFF700FF601CC4B2B442F0DB4E
:104560004046FFF73EFF4046FFF772FF0020D0E7CE
:104570002DE9F04106460C4615463046FFF749FF47
:104580006006010E3046FFF7FFFE3046FFF77FFF63
:1045900029463046FFF7F8FE3046FFF778FF3046F1
:1045A000FFF737FF012000EB4400C1B23046FFF7B0
:1045B000EBFE3046FFF76BFF3046FFF7A3FE0746E2
:1045C0003046FFF70EFF3046FFF742FF3846BDE8A2
:1045D000F0812DE9F04780460D4616461F46DDF86E
:1045E00020904046FFF715FF6806010E4046FFF792
:1045F000CBFE4046FFF74BFF28B14046FFF728FFB0
:104600000120BDE8F08731464046FFF7BDFE404639
:10461000FFF73DFF002409E019F804104046FFF7BA
:10462000B3FE4046FFF733FF601CC4B2BC42F3DB6D
:104630004046FFF70DFF012008F08EF80020E0E76C
:104640002DE9F04107460C4615461E463846FFF751
:10465000E0FE6006010E3846FFF796FE3846FFF78B
:1046600016FF28B13846FFF7F3FE0120BDE8F081C0
:1046700029463846FFF788FE3846FFF708FF3146DF
:104680003846FFF781FE3846FFF701FF3846FFF74F
:10469000DFFE012008F060F80020E7E738B50446A7
:1046A00012480088401C11490880084600883228BA
:1046B00009D1002000900123002269460C480068BF
:1046C0002DF04CFD00BF0948008896280CD1012030
:1046D0000090002005490880012300226946054812
:1046E00000682DF03BFD00BF38BD0000BC0000207D
:1046F000A8000020AC00002070B5044600252CB1B5
:1047000001202749087000202649087024480078B5
:1047100010B320212448FDF749FB20B11021224885
:10472000FDF744FBC0B103202DF034FC20211E48CE
:10473000FDF73CFB10B901201A49087010211A48F6
:10474000FDF734FB10B102201649087015480078B7
:1047500010B100201249087012480078F0B12021F1
:104760001148FDF723FBC8B110210F48FDF71EFBD0
:10477000A0B903202DF00EFC20210B48FDF716FBFD
:1047800060B110210848FDF711FB38B90120044938
:10479000087004480578002002490870284670BD5A
:1047A000C0030020C1030020000002401CB500200F
:1047B000019000BF00902DE00020FFF79DFF012831
:1047C00002D0022822D110E0012001900123002212
:1047D00001A9114800682DF0C1FC0123002269469F
:1047E0000E4800682DF0BAFC10E002200190012371
:1047F000002201A9084800682DF0B0FC0123002226
:104800006946064800682DF0A9FC00BF00BF0120E2
:104810002DF0C0FBD0E70000A4000020B000002075
:1048200000B587B0142102A8FBF77CFD00BF002073
:1048300001901A48006840F00100184908600846D5
:10484000006800F00100019000BF00BF202002902E
:104850004FF4041003900120049002A91048FDF7C2
:10486000C1F9102002904FF48810039000200490AA
:1048700002A90B48FDF7B6F9002205211720FDF724
:104880006BFB1720FDF754FB002205210A20FDF7E2
:1048900063FB0A20FDF74CFB07B000BD3038024037
:1048A000000002402DE9F04107460C4615461E4621
:1048B0002A2000F077FA384600F05CFA284600F02B
:1048C00059FA2B2000F06EFA204600F053FA3046D9
:1048D00000F050FA2C2000F065FABDE8F0810000ED
:1048E0002DE9F05F06460C4617461D46B81B401CD6
:1048F0001FFA80F8281B401C1FFA80F908FB09FAF0
:104900004FEA4A0B05F1140083B204F1140081B29E
:104910003A463046FFF7C6FF1FFA8BF202480A9963
:10492000FEF73EFCBDE8F09FA804002070B50446E9
:104930000D4616462B46224629462046FFF7B2FF73
:10494000304600F017FA70BD2DE9F04707460C46D7
:1049500015461E46DDF820A006F1130083B2681E3E
:1049600082B204F1140081B23846FFF79BFFA046E3
:104970000EE0B94606E0504600F0FCF909F10100EE
:104980001FFA80F9A945F6DB08F101001FFA80F84B
:10499000B045EEDBBDE8F08700B587B0142102A872
:1049A000FBF7C0FC00BF002001901048006840F0F9
:1049B00002000E4908600846006800F002000190FD
:1049C00000BF00BF4FF460700290012003900320ED
:1049D000059002A90648FDF705F901224FF4607120
:1049E0000348FDF7F5F907B000BD0000303802407C
:1049F0000004024010B5FFF7CFFF00224FF4807192
:104A00006548FDF7E5F9002280216348FDF7E0F9EC
:104A1000642007F095FE012280215F48FDF7D8F958
:104A2000642007F08DFE112000F0BCF9782007F01B
:104A300087FE362000F0B6F9002000F0ADF93A20EC
:104A400000F0B0F9052000F0A7F9B22000F0AAF9B3
:104A50000C2000F0A1F90C2000F09EF9002000F0DD
:104A60009BF9332000F098F9332000F095F9B72036
:104A700000F098F9352000F08FF9BB2000F092F992
:104A8000192000F089F9C02000F08CF92C2000F0EA
:104A900083F9C22000F086F9012000F07DF9C320DF
:104AA00000F080F9122000F077F9C42000F07AF9C4
:104AB000202000F071F9C62000F074F90F2000F0FA
:104AC0006BF9D02000F06EF9A42000F065F9A12068
:104AD00000F062F9E02000F065F9D02000F05CF908
:104AE000042000F059F90D2000F056F9112000F0D3
:104AF00053F9132000F050F92B2000F04DF93F201E
:104B000000F04AF9542000F047F94C2000F044F935
:104B1000182000F041F90D2000F03EF90B2000F0C4
:104B20003BF91F2000F038F9232000F035F9E1208F
:104B300000F038F9D02000F02FF9042000F02CF913
:104B40000C2000F029F9112000F026F9132000F0C4
:104B500023F92C2000F020F93F2000F01DF944201B
:104B600000F01AF9512000F017F92F2000F014F985
:104B70001F2000F011F91F2000F00EF9202000F096
:104B80000BF9232000F008F9212000F00BF929206F
:104B900000F008F910BD00000004024010B5082123
:104BA0000148FEF749FE10BD60050020014908607C
:104BB000704700009003002005280ADB642808DC09
:104BC0004FF496714143642291FBF2F1014A12685D
:104BD000D1637047600500202DE9FF5F80468A465B
:104BE00017469B460F9D00200290CDF80080284676
:104BF00005EBD071C1F347042046E21704EB527273
:104C0000D2102146E31704EB5373DB10A4EBC3036C
:104C10000BB1012300E000231A446A4392B20192CF
:104C2000A7F12000C7B20AEB0500401E83B208EBD3
:104C30000400401E82B251464046FFF733FE002674
:104C400069E00C2D07D107EB4700354901EB8000E7
:104C5000805D03901BE0102D05D1324800EB07105A
:104C6000805D039013E0182D07D107EB47002E4914
:104C700001EB0010805D039009E0202D05D12B4849
:104C800000EB8710805D039001E0BDE8FF9F4FF0CF
:104C900000093AE01098C8B9012000FA09F0039918
:104CA000084018B1584600F065F802E00E9800F090
:104CB00061F80298401CC0B20290029890FBF4F197
:104CC00004FB1100E8B90020029021E0012000FA65
:104CD00009F00399084020B15A4651464046FFF773
:104CE00025FE08F101001FFA80F80098A8EB0000EB
:104CF000A04206D1DDF800800AF101001FFA80FA17
:104D000006E009F1010000F0FF09B9F1080FC1DB6D
:104D100000BF701C86B20198864292DB00BFB4E7E8
:104D2000A4DD030818E2030808E80308D8F903081B
:104D30002DE9FE4F06460F4614469846DDE90D5A0A
:104D4000DDF8309010E0CDE9015ACDF800902278DE
:104D5000434639463046FFF73FFF284605EBD07102
:104D600006EB61018EB2641C20780028EBD1BDE80F
:104D7000FE8F000038B50446200A8DF80000E0B22E
:104D80008DF801000123022269460248FEF728F946
:104D900038BD0000A804002010B50446204600F0ED
:104DA00015F810BD10B5044600224FF400710648F6
:104DB000FDF70EF8204600F009F8012251020248E2
:104DC000FDF706F810BD00000004024001B5012304
:104DD0001A4669460148FEF703F908BDA8040020F9
:104DE00000B587B0142102A8FBF79CFA00BF002091
:104DF00001900D48006840F002000B490860084629
:104E0000006800F00200019000BF00BF4FF40040B6
:104E10000290012003900020049002A90348FCF7AF
:104E2000E1FE07B000BD000030380240000402403F
:104E300038B5002500BF002000903148006840F0E0
:104E400002002F4908600846006800F00200009048
:104E500000BF00BF2B48FFF73BFA00BF1AE010214C
:104E6000232000F06DF80120FCF7A8FE2F21202060
:104E700000F066F80120FCF7A1FE202000F04EF8BB
:104E800004462F2C03D00A20FCF798FE00E003E034
:104E9000681CC5B2032DE2DB00BF2F2C01D001201E
:104EA00038BD0120FCF78AFE002520E010210020FB
:104EB00000F046F80120FCF781FE8021012000F07F
:104EC0003FF80120FCF77AFE0021022000F038F8BC
:104ED0000120FCF773FE022000F020F804461CB10C
:104EE0000A20FCF76BFE00E003E0681CC5B2032D4E
:104EF000DCDB00BF0CB10120D2E70020D0E70000CE
:104F000030380240C403002010B50321022000F015
:104F100017F80F21202000F013F810BD70B50446DB
:104F2000192C01DD192000E01E20064622463146DC
:104F30000248FFF71DFB0546284670BDC40300204C
:104F400070B504460D46192C01DD192000E01E2025
:104F500006462B46224631460148FFF771FB70BDDD
:104F6000C403002008B50020009012E0002019F0D2
:104F7000E2F9B0F57A7F06D200231A466946054861
:104F800000682DF0EBF800BF2AF044FE01202DF060
:104F900001F8EBE7B000002008B500BF002000904A
:104FA0000848006840F002000649086008460068AA
:104FB00000F00200009000BF00BF0348FFF788F92F
:104FC00008BD000030380240D00300202DE9F04138
:104FD00006460F4614461D462148FFF71AFA0020E0
:104FE00040EA4600C1B21E48FFF7CEF91C48FFF761
:104FF0004EFA28B11A48FFF72BFA0120BDE8F081DC
:1050000039461748FFF7C0F91548FFF740FA14482A
:10501000FFF7FFF9012000EB4600C1B21048FFF78F
:10502000B3F90F48FFF733FA13E0012C07D10C480E
:10503000FFF768F928700A48FFF7D3F906E0084837
:10504000FFF760F928700648FFF786F9601EC4B2C2
:105050006D1C002CE9D10248FFF7FAF90020CDE7DA
:10506000D00300202DE9F0410546884616461F462C
:105070001948FFF7CEF9002040EA4500C1B21648B2
:10508000FFF782F91448FFF702FA28B11248FFF738
:10509000DFF90120BDE8F08141460F48FFF774F9C0
:1050A0000D48FFF7F4F900240EE0395D0A48FFF7D8
:1050B0006BF90948FFF7EBF920B10748FFF7C8F98A
:1050C0000120E7E7601CC4B2B442EEDB0248FFF700
:1050D000BFF90020DEE70000D00300201FB500204C
:1050E00000900190029003901548164908604FF413
:1050F000803048600021134881600161017680F8AA
:105100002010C162104981620021C1600121C1618A
:10511000002180F8301001214161FCF751F908B1FC
:10512000FCF732F8012000900190002002906946BF
:105130000448FCF76FF808B1FCF726F81FBD000023
:1051400000200140400400200100000F10B5054878
:10515000054908600846FCF7BDFA08B1FCF714F8E9
:1051600010BD0000003002400400002008B500BF60
:10517000002000901248006840F480001049086048
:105180000846006800F48000009000BF00BF0022C5
:1051900005213A20FCF7E0FE3A20FCF7C9FE002288
:1051A00011464420FCF7D8FE4420FCF7C1FE002243
:1051B00005214620FCF7D0FE4620FCF7B9FE08BDCD
:1051C0003038024010B5054A002105482DF008F896
:1051D0000449086001F0CCFA10BD0000049B0308EC
:1051E000C95F00080000002008B500BF0020009043
:1051F0001548006840F0040013490860084600683C
:1052000000F00400009000BF00BF00BF002000902D
:105210000846006840F0010008600846006800F099
:105220000100009000BF00BF00BF002000900846B2
:10523000006840F0020008600846006800F00200C4
:10524000009000BF00BF08BD3038024000B587B0F5
:10525000142102A8FBF766F8002001902A482B4988
:105260000860002048607F2128488160FF21C160DC
:105270000021016141618161FDF774FC08B1FBF718
:1052800083FF01212148FDF745FB45F65A2188425D
:1052900001D107B000BD45F65A2201211B48FDF798
:1052A00042FB14208DF8080004208DF809005920D5
:1052B0008DF80A00002005900690012202A91348EB
:1052C000FDF730FD08B1FBF75FFF07208DF8040004
:1052D00006208DF8050007208DF8060026208DF8A1
:1052E0000700012201A90948FDF7BCFC08B1FBF742
:1052F0004BFF00224FF4FA610448FDF71DFB08B193
:10530000FBF742FF00BFC4E70028004088040020EC
:1053100010B50E480E4908604FF4827048600021B5
:105320000B488160C1600221016101214161490294
:1053300081610021C1610162416281620A21C16211
:10534000FDF783FD08B1FBF71FFF10BD00300140E2
:10535000A804002000B589B00020079008901C2107
:105360006846FAF7DFFF184818490860632048606C
:105370000021164881604FF49671C16000210161DF
:105380008161FEF70AFA08B1FBF7FEFE00200790E4
:10539000089007A90D48FDF7CBFF08B1FBF7F4FE15
:1053A000602000900020019002900490082269463D
:1053B0000648FEF770F908B1FBF7E6FE0348FEF772
:1053C00039F909B000BD000000040040600500206C
:1053D00010B50B480B4908604FF4E13048600021DC
:1053E00008488160C16001610C2141610021816137
:1053F000C161FEF72BFC08B1FBF7C6FE10BD000033
:1054000000100140A805002000BFFEE700BFFEE736
:1054100010B52DED028BFBF7C1FCB0EE408AFBF717
:105420008DFD28B19FED580A38EE400AB0EE408A53
:105430009FED560AB4EEC08AF1EE10FA01DB642447
:105440009EE09FED530AB4EEC08AF1EE10FA08DB3D
:105450009FED4E0AB4EEC08AF1EE10FA01D25A2442
:105460008EE09FED4C0AB4EEC08AF1EE10FA08DB34
:105470009FED470AB4EEC08AF1EE10FA01D2502433
:105480007EE09FED450AB4EEC08AF1EE10FA08DB2B
:105490009FED400AB4EEC08AF1EE10FA01D2462424
:1054A0006EE09FED3E0AB4EEC08AF1EE10FA08DB22
:1054B0009FED390AB4EEC08AF1EE10FA01D23C2415
:1054C0005EE09FED370AB4EEC08AF1EE10FA08DB19
:1054D0009FED320AB4EEC08AF1EE10FA01D2322406
:1054E0004EE09FED300AB4EEC08AF1EE10FA08DB10
:1054F0009FED2B0AB4EEC08AF1EE10FA01D22824F7
:105500003EE09FED290AB4EEC08AF1EE10FA08DB06
:105510009FED240AB4EEC08AF1EE10FA01D21E24E7
:105520002EE09FED220AB4EEC08AF1EE10FA08DBFD
:105530009FED1D0AB4EEC08AF1EE10FA01D21424D8
:105540001EE09FED1B0AB4EEC08AF1EE10FA08DBF4
:105550009FED160AB4EEC08AF1EE10FA01D20A24C9
:105560000EE09FED140AB4EEC08AF1EE10FA07DBEC
:105570009FED0F0AB4EEC08AF1EE10FA00D20524B6
:105580002046BDEC028B10BD6F12033E666686405E
:1055900085EB814052B87E4048E17A4014AE7740B6
:1055A000E17A74405C8F7240AE477140295C6F4075
:1055B0001F856B40CDCC5C400EB500200290019061
:1055C000009026E00123002202A9124800682CF076
:1055D00037FD10B90520FFF7EFFA0123002201A9DA
:1055E0000D4800682CF02CFD28B900200B490880DC
:1055F0005A20FFF7E1FA00231A4669460848006876
:105600002CF01EFD10B90020044908800A202CF05F
:10561000C1FCD7E7A8000020B0000020BC0000209B
:10562000AC00002010B5002208210248FCF7D0FB96
:1056300010BD00000000024010B501220821024800
:10564000FCF7C6FB10BD00000000024010B500F0E2
:1056500003F8FFF7F1FF10BD00B587B0142102A8D1
:10566000FAF760FE00BF002001901948006840F082
:105670000100174908600846006800F00100019029
:1056800000BF00BF002208211248FCF7A1FB082040
:1056900002900120039000200490059002A90D487B
:1056A000FCF7A0FA042002904FF44410039000206D
:1056B000049002A90748FCF795FA0022052108206A
:1056C000FCF74AFC0820FCF733FC07B000BD0000E3
:1056D000303802400000024010B52DED088BFBF77A
:1056E00077FD00EE100AB8EEC00AF0EE408A18EE20
:1056F000900AFAF7D5FF41EC1B0B9FED340B53ECEE
:10570000102BFAF75EFF41EC1A0BFAF7F5FF08EEE3
:10571000900AFBF73CFD00EE100AB8EEC00AB0EEAE
:10572000408A18EE100AFAF7BBFF41EC1B0B9FED05
:10573000290B53EC102BFAF744FF41EC1A0BFAF744
:10574000DBFF08EE100A2548B0F9000000EE100A51
:10575000B8EEC00A2248B0F9000000EE900AF8EE58
:10576000E00A08EE200A1F48D0ED000AF8EEE00A31
:1057700048EE000A1C4890ED000AB8EEC00A08EE98
:10578000200A1A48B0F9000000EE900AF8EEE00A8C
:1057900008EEA00A68EE881A1548B0F9000000EE7D
:1057A000900AF8EEE00A1348B0F9000001EE100A82
:1057B000B8EEC11A48EE010A01EEA00AB0EE409A16
:1057C000B0EE490ABDEC088B10BD000000000000DF
:1057D000000020410000000000003841F0030020DC
:1057E000F4030020FC030020F8030020EC03002059
:1057F000EE030020F2030020014600BF080900EB81
:105800008000420001F00F001044C0B27047014612
:10581000002203E0521CA1F10A00C1B20A29F9D208
:10582000100741EA1060704770B504460026002555
:105830002068C06800F04000C8B92068C06840F027
:1058400080002168C860FCF7C9FA064608E0FCF74A
:10585000C5FA801BB0F57A7F02D904206077012554
:105860002068C06800F0400008B9012DEFD128463B
:1058700070BD70B5044600252068C06820F0800027
:105880002168C8602068806800F0200030B9204698
:10589000FDF7BEFA10B1042060770125284670BDDF
:1058A000F8B504460D461646002000908DF80260BB
:1058B0008DF801508DF803401423324629462046C6
:1058C00033F019F98DF80000002269460348FDF70E
:1058D000C9F908B1FBF758FCF8BD000088040020A6
:1058E00070B586B004460D461646142101A8FAF795
:1058F00019FD8DF804408DF805508DF806600022E2
:1059000001A90448FDF70EFA08B1FBF73DFC06B00B
:1059100070BD00008804002010B50248FDF7B2F801
:1059200010BD00008804002031B1426892694389AB
:105930001A4343689A6103E04289120443689A61FA
:10594000704710B5044621892068FCF72FFA01281A
:1059500000D110BD0020FCE710B586B0044614212C
:1059600001A8FAF7DFFC20890190002002900120B5
:1059700003900220049001A92068FCF733F906B0D7
:1059800010BD31B10268926903891A4303689A61B4
:1059900003E00289120403689A61704710B586B06B
:1059A0000446142101A8FAF7BDFC208901901120BA
:1059B0000290002003900220049001A92068FCF7C7
:1059C00011F906B010BD70B50546AC6B2068406893
:1059D00020F0030021684860606D40F010006065B1
:1059E000012084F851002046FDF72EFA70BD70B5F5
:1059F0000446A56B2846FDF769FC70BDF8B5054661
:105A0000AC6BFCF7EBF906462868006800F4807080
:105A1000B0F5807F2DD02068406820F020002168FC
:105A200048602068406820F00200216848603246E3
:105A30006421204600F022F818B1606D40F020008B
:105A40006065A06850B900BF002000902068C06861
:105A5000009020688068009000BF00BF0020E086B2
:105A6000012084F85100606D18B12046FDF7ECF973
:105A7000F8BD2046FDF712FC00BFF9E77CB50446EF
:105A80000E4615463346012202212046009500F0BD
:105A900039F828B1606D40F02000606503207CBDBE
:105AA000164800681821B0FBF1F01549B0FBF1F081
:105AB0004FF47A71484301906068B0F5827F0DD150
:105AC0003346002280212046009500F01BF898B153
:105AD000606D40F0200060650320E0E700BF0198A2
